:03000000020BF5FB
:100BF50078FFE4F6D8FD9000007F007E03E4F0A3C3
:0A0C0500DFFCDEFA758120020C4AC4
:070F5D0042003B0000C1004F
:0B0D0E00120FA17F647E007D007C00BE
:060D19009000171209A66C
:100D1F0090001B1209B200000000900017E0FCA326
:100D2F00E0FDA3E0FEA3E0FFA3E0F8A3E0F9A3E05A
:100D3F00FAA3E0FBC312099550220090001BE0FCC0
:100D4F00A3E0FDA3E0FEA3E02401FFE43EFEE43DAB
:0C0D5F00FDE43CFC90001B1209A680BEC5
:010D6B002265
:020D6C00AB07D3
:100D6E00900005749CF0A37440F0C3ED9484EC9451
:100D7E000350047C037D84D3ED9434EC940840043A
:100D8E007C087D34ED25E0FEEC33900007F0A3CE19
:100D9E00F0EB7016900005E0FEA3E0FF120F8590B9
:0A0DAE000007E0FEA3E0FF120F7A39
:010DB8002218
:100AA400E4900000F0A31209B200000000C2AF12EB
:100AB4000E05120F6D120F907F07120F4B120F9A33
:100AC400120EF8120F1C120ED2120E42D2AF43882D
:100AD400025388FB7D847C03E4FF120D6CE49000D8
:100AE4003BF0A3F07B017A0079237D0A120E74E4B3
:100AF400900000F0900000E0FFC3940A5025EF2519
:100B0400E02423F582E43400F583E0FEA3E0FF90C3
:100B1400003CE02FF090003BE03EF0900000E00449
:100B2400F080D190003BE0FEA3E0FF7C007D0A1240
:100B3400081990003BEEF0A3EFF0E4FCFD1209E38A
:100B44007F0D120FA17F0A120FA17FE87E03120D01
:030B540015808A7F
:03000B00020B578E
:100B5700C0E0C0F0C083C082C0D075D000C000C064
:100B670001C002C003C004C005C006C007E58090ED
:100B7700001F30E3091209B2000000008052E0F8BC
:100B8700A3E0F9A3E0FAA3E0FBC000C001C002C0E4
:100B970003120F38E4FCFDD003D002D001D000EBE4
:100BA7002FFFEA3EFEED39FDEC38FC90001F1209DD
:100BB700A6E47B02FAF9F890001FE0FCA3E0FDA38E
:100BC700E0FEA3E0FF1209039000371209A6D20046
:100BD70075A1FDD007D006D005D004D003D002D030
:0E0BE70001D000D0D0D082D083D0F0D0E03248
:03006300020FA4E5
:010FA400321A
:03006B00020DB9CA
:100DB900C0E0C0F0C083C082C0D075D000C000C000
:100DC90004C005C006C00790001FE0FCA3E0FDA316
:100DD900E0FEA3E02400FFE43EFEED3401FDE43C27
:100DE900FC90001F1209A6D007D006D005D004D068
:0C0DF90000D0D0D082D083D0F0D0E03207
:03007300020FA5D4
:010FA5003219
:0A0F900043D140E4F59275930E2260
:100F4B00439280EF540FFFE59254F04FF59243928A
:020F5B00402232
:070F9A0075AC0C43A8022214
:100EF80043E18075E20675E30DE4F5E4F5E5F5E612
:100F080075DE6775D38075D24975D5FF75D4FFF541
:040F1800D6F5D72211
:030FA1008FDD22BF
:100EA600900042EBF0A3EAF0A3E9F0900042E0FBE9
:100EB600A3E0FAA3E0F9120800FF600F120D0E90EE
:0C0EC6000043E475F00112086E80E02289
:0609E3009000051209A6B8
:1009E900E4900015F0A3F0FFFEFDFC900005E0F88F
:1009F900A3E0F9A3E0FAA3E0FBC312099570057F10
:100A090030020FA1E4FFFEFDFC900005E0F8A3E031
:100A1900F9A3E0FAA3E0FBD31209954052E47B0A5B
:100A2900FAF9F8900005E0FCA3E0FDA3E0FEA3E0DD
:100A3900FF120903EB2430FF900015E475F0011251
:100A49000884FC740925F0F58274003CF583EFF005
:100A5900900005E0FCA3E0FDA3E0FEA3E0FFE47B3A
:100A69000AFAF9F81209039000051209A68095D32C
:100A7900900016E09400900015E064809480401A7C
:100A890074FFF5F012086EFE740925F0F582740002
:0A0A99003EF583E0FF120D0E80D53C
:010AA3002230
:100F1C0043D90175CB3075CA2075CF4E75CE1F7570
:0C0F2C00CD9C75CC3F43AA0143CB802232
:0B0F7A00AD07AC06ECF5CFEDF5CE2284
:0B0F8500AD07AC06ECF5CDEDF5CC227D
:100ED20043D9029010097410F09010087460F090D9
:100EE200100B749CF090100A743FF043AA02901009
:060EF20009E04480F0223B
:100F3800E4FC90100EE0FDA3E0FEE42DFDEC3EFE87
:020F4800AF05F3
:010F4A002284
:100E420043D9049010117430F09010107460F09037
:100E52001015744EF0901014741FF0901013749CBF
:100E6200F0901012743FF043AA04901011E04480F5
:020E7200F0226C
:0C0F6D00AFC8EF54C74428F5C8E4F58A6B
:010F79002255
:100E050043D101E4F5B5F5B475B3AA75B22A75B148
:100E150008F58075B71875B61043D102F5BDF5BC58
:100E250075BBAA75BA96F5B9F588F5BFF5BE43D178
:0D0E350004F5C5F5C475C2AAF590F5C622F6
:080F6400410040004100410082
:100E7400900040EDF090003DEBF0A3EAF0A3E9F020
:100E8400E4900041F043AB01E59354307003439286
:100E940040900040E0FFE4C39F40F653937F53AB80
:020EA400FE222C
:03009300020C8FCD
:100C8F00C0E0C0F0C083C082C0D075D000C000C02B
:100C9F0001C002C003C004C005C006C007AF94EF77
:100CAF00FD7C00AF95EFFEE42DFFEC3EFE90003D86
:100CBF00E0FBA3E0FAA3E0F9900041E0FD04F0753A
:100CCF00F002EDA4F58285F083EE8FF012089A9072
:100CDF000040E014F0E59354307006E06003439257
:100CEF004053937FD007D006D005D004D003D00255
:0F0CFF00D001D000D0D0D082D083D0F0D0E0325E
:100C0F00020AA4E493A3F8E493A34003F68001F24D
:100C1F0008DFF48029E493A3F85407240CC8C333E6
:100C2F00C4540F4420C8834004F456800146F6DFB5
:100C3F00E4800B0102040810204080900F5DE47ED9
:100C4F00019360BCA3FF543F30E509541FFEE493AA
:100C5F00A360010ECF54C025E060A840B8E493A371
:100C6F00FAE493A3F8E493A3C8C582C8CAC583CA9C
:100C7F00F0A3C8C582C8CAC583CADFE9DEE780BE54
:010F6C000084
:10080000BB010689828A83E0225002E722BBFE02F6
:09081000E32289828A83E4932229
:10081900BC000BBE0029EF8DF084FFADF022E4CCC3
:10082900F875F008EF2FFFEE33FEEC33FCEE9DEC8C
:10083900984005FCEE9DFE0FD5F0E9E4CEFD22EDD2
:10084900F8F5F0EE8420D21CFEADF075F008EF2F1C
:10085900FFED33FD4007985006D5F0F222C398FD0D
:050869000FD5F0EA22AA
:10086E00C5F0F8A3E028F0C5F0F8E5821582700215
:06087E001583E038F022B2
:10088400A3F8E0C5F025F0F0E58215827002158327
:06089400E0C838F0E82284
:10089A00F8BB0111E58229F582E5833AF583E8F090
:1008AA00E5F0A3F0225009E92582C8F608A6F0224D
:0D08BA00BBFE09E92582C8F2E5F008F22234
:1008C70075F008758200EF2FFFEE33FECD33CDCCE8
:1008D70033CCC58233C5829BED9AEC99E58298406B
:1008E7000CF582EE9BFEED9AFDEC99FC0FD5F0D648
:1008F700E4CEFBE4CDFAE4CCF9A88222B800C1B972
:100907000059BA002DEC8BF084CFCECDFCE5F0CBAF
:10091700F97818EF2FFFEE33FEED33FDEC33FCEBE8
:1009270033FB10D703994004EB99FB0FD8E5E4F9A3
:10093700FA227818EF2FFFEE33FEED33FDEC33FC90
:10094700C933C910D7059BE99A4007EC9BFCE99A84
:10095700F90FD8E0E4C9FAE4CCFB2275F010EF2FC9
:10096700FFEE33FEED33FDCC33CCC833C810D707C9
:100977009BEC9AE899400AED9BFDEC9AFCE899F804
:0E0987000FD5F0DAE4CDFBE4CCFAE4C8F92297
:10099500EB9FF5F0EA9E42F0E99D42F0E89C45F0B8
:0109A500222F
:0C09A600ECF0A3EDF0A3EEF0A3EFF022C4
:1009B200A8828583F0D083D0821209C91209C91294
:1009C20009C91209C9E473E493A3C583C5F0C583B9
:1009D200C8C582C8F0A3C583C5F0C583C8C582C88F
:0109E20022F2
:00000001FF
