:03000000020D7E70
:100D7E0078FFE4F6D8FD9000007F007E03E4F0A338
:0A0D8E00DFFCDEFA758120020DD3B0
:1010BE004200200000C10042002207DF420000056E
:1010CE00DC42001A0000420024000044002600000A
:0210DE00000010
:0B0F02001211A87F647E007D007C00BF
:060F0D00900047120A0BE0
:100F130090004B120A1700000000900047E0FCA36A
:100F2300E0FDA3E0FEA3E0FFA3E0F8A3E0F9A3E064
:100F3300FAA3E0FBC31209FA50220090004BE0FC35
:100F4300A3E0FDA3E0FEA3E02401FFE43EFEE43DB5
:0C0F5300FDE43CFC90004B120A0B80BE39
:010F5F00226F
:020F6000AB07DD
:100F6200900035749CF0A37440F0C3ED9484EC942B
:100F72000350047C037D84D3ED9434EC9408400444
:100F82007C087D34ED25E0FEEC33900037F0A3CEF3
:100F9200F0EB7016900035E0FEA3E0FF12118C908A
:0A0FA2000037E0FEA3E0FF1211810A
:010FAC002222
:040E9700AB07AA06F5
:100E9B00900054120A1700000000C3EB9484EA94EC
:100EAB000350047A037B84D3EB9434EA9408400414
:100EBB007A087B34EB247CFFEA34FCFE7C0E7DABA2
:100ECB00120A48900054120A0B900054E0FCA3E065
:100EDB00FDA3E0FEA3E0FFE47BB07A04F9F812096E
:100EEB0052900054120A0B900054A3A3E0FEA3E00F
:060EFB0024A3FFE43EFE0B
:010F010022CD
:100A7500C3EF9DFFEE9C90001AF0A3EFF0900026C7
:100A8500E0F8A3E0F9A3E0FAA3E0FB90001AE0FE8A
:100A9500A3E0FFEE3395E0FDFCEB2FFFEA3EFEE918
:100AA5003DFDE83CFC900026120A0BE47F887E138E
:100AB500FDFC900026E0F8A3E0F9A3E0FAA3E0FB33
:100AC500D31209E4400A900026120A170000138881
:100AD5007F787EEC7DFF7CFF900026E0F8A3E0F9AF
:100AE500A3E0FAA3E0FBC31209E4500A9000261222
:100AF5000A17FFFFEC78900024E0FEA3E0FF9000CA
:100B05001AE0FCA3E0FDC39FFFEC9E90005BF0A301
:100B1500EFF0900024ECF0A3EDF0FFAE04EE33957A
:100B2500E0FDFCE47B02FAF9F81208C7900026E024
:100B3500F8A3E0F9A3E0FAA3E02FFBEA3EFAE93DCA
:100B4500F9E83CF890005BE0FEA3E0FFEE3395E0AA
:100B5500FDFCEB2FFFEA3EFEE93DFDE83CFCE47BB6
:070B650064FAF9F8020FAD7C
:100C2D00E490002AF0A3120A1700000000C2AF12D0
:100C3D000FF11211741211977F071211621211A187
:100C4D0012110F1211331210E912102ED2AF438868
:100C5D00025388FB7D847C03E4FF120F60E4900057
:100C6D0020F0A3F07B017A0079067D0A121060E472
:100C7D0090002AF090002AE0FFC3940A5025EF253A
:100C8D00E02406F582E43400F583E0FEA3E0FF9056
:100C9D000021E02FF0900020E03EF090002AE004CB
:100CAD00F080D1900020E0FEA3E0FF7C007D0A12D1
:100CBD000819900020EEF0A3EFF0E4FCFD120B6C90
:100CCD007F0D1211A87F0A1211A87FE87E03120F63
:030CDD0009808A01
:03000B00020CE004
:100CE000C0E0C0F0C083C082C0D075D000C000C0DA
:100CF00001C002C003C004C005C006C007E5809063
:100D0000000230E309120A17000000008052E0F8E8
:100D1000A3E0F9A3E0FAA3E0FBC000C001C002C059
:100D20000312114FE4FCFDD003D002D001D000EB40
:100D30002FFFEA3EFEED39FDEC38FC900002120A6E
:100D40000BE47B02FAF9F8900002E0FCA3E0FDA3BB
:100D5000E0FEA3E0FF12095290001C120A0BD20021
:100D600075A1FDD007D006D005D004D003D002D0A5
:0E0D700001D000D0D0D082D083D0F0D0E032BD
:0A11970043D140E4F59275930E2257
:10116200439280EF540FFFE59254F04FF592439271
:02117200402219
:0711A10075AC0C43A802220B
:10110F0043E18075E20675E30DE4F5E4F5E5F5E6F8
:10111F0075DE6775D38075D24975D5FF75D4FFF528
:04112F00D6F5D722F8
:0311A8008FDD22B6
:10109200900058EBF0A3EAF0A3E9F0900058E0FBCF
:1010A200A3E0FAA3E0F9120800FF600F120F02900A
:0C10B2000059E475F00112086E80E02285
:060B6C00900035120A0B97
:100B7200E4900045F0A3F0FFFEFDFC900035E0F8A4
:100B8200A3E0F9A3E0FAA3E0FBC31209FA70057F20
:100B9200300211A8E4FFFEFDFC900035E0F8A3E06E
:100BA200F9A3E0FAA3E0FBD31209FA4052E47B0A6C
:100BB200FAF9F8900035E0FCA3E0FDA3E0FEA3E023
:100BC200FF120952EB2430FF900045E475F0011248
:100BD2000884FC743925F0F58274003CF583EFF04B
:100BE200900035E0FCA3E0FDA3E0FEA3E0FFE47B80
:100BF2000AFAF9F8120952900035120A0B8095D3BD
:100C0200900046E09400900045E064809480401A91
:100C120074FFF5F012086EFE743925F0F582740047
:0A0C22003EF583E0FF120F0280D5BB
:010C2C0022A5
:1011330043D90175CB3075CA2075CF4E75CE1F7557
:0C114300CD9C75CC3F43AA0143CB802219
:0B118100AD07AC06ECF5CFEDF5CE227B
:0B118C00AD07AC06ECF5CDEDF5CC2274
:1010E90043D9029010097410F09010087460F090C0
:1010F900100B749CF090100A743FF043AA029010F0
:0611090009E04480F02221
:10114F00E4FC90100EE0FDA3E0FEE42DFDEC3EFE6E
:02115F00AF05DA
:01116100226B
:10102E0043D9049010117430F09010107460F09049
:10103E001015744EF0901014741FF0901013749CD1
:10104E00F0901012743FF043AA04901011E0448007
:02105E00F0227E
:0C117400AFC8EF54C74428F5C8E4F58A62
:01118000224C
:100FF10043D101E4F5B5F5B475B3AA75B22A75B15B
:1010010008F58075B71875B61043D102F5BDF5BC6A
:1010110075BBAA75BA96F5B9F588F5BFF5BE43D18A
:0D10210004F5C5F5C475C2AAF590F5C62208
:0810E0004100520041005300E1
:10106000900052EDF090004FEBF0A3EAF0A3E9F00E
:10107000E4900053F043AB01E59354307003439286
:1010800040900052E0FFE4C39F40F653937F53AB80
:02109000FE223E
:03009300020E1842
:100E1800C0E0C0F0C083C082C0D075D000C000C0A0
:100E280001C002C003C004C005C006C007AF94EFEC
:100E3800FD7C00AF95EFFEE42DFFEC3EFE90004FE9
:100E4800E0FBA3E0FAA3E0F9900053E0FD04F0759D
:100E5800F002EDA4F58285F083EE8FF012089A90E7
:100E68000052E014F0E59354307006E060034392BA
:100E78004053937FD007D006D005D004D003D002CA
:0F0E8800D001D000D0D0D082D083D0F0D0E032D3
:100D9800020C2DE493A3F8E493A34003F68001F238
:100DA80008DFF48029E493A3F85407240CC8C3335C
:100DB800C4540F4420C8834004F456800146F6DF2B
:100DC800E4800B01020408102040809010BEE47EED
:100DD800019360BCA3FF543F30E509541FFEE49320
:100DE800A360010ECF54C025E060A840B8E493A3E7
:100DF800FAE493A3F8E493A3C8C582C8CAC583CA12
:100E0800F0A3C8C582C8CAC583CADFE9DEE780BEC9
:0110E8000007
:10080000BB010689828A83E0225002E722BBFE02F6
:09081000E32289828A83E4932229
:10081900BC000BBE0029EF8DF084FFADF022E4CCC3
:10082900F875F008EF2FFFEE33FEEC33FCEE9DEC8C
:10083900984005FCEE9DFE0FD5F0E9E4CEFD22EDD2
:10084900F8F5F0EE8420D21CFEADF075F008EF2F1C
:10085900FFED33FD4007985006D5F0F222C398FD0D
:050869000FD5F0EA22AA
:10086E00C5F0F8A3E028F0C5F0F8E5821582700215
:06087E001583E038F022B2
:10088400A3F8E0C5F025F0F0E58215827002158327
:06089400E0C838F0E82284
:10089A00F8BB0111E58229F582E5833AF583E8F090
:1008AA00E5F0A3F0225009E92582C8F608A6F0224D
:0D08BA00BBFE09E92582C8F2E5F008F22234
:1008C700E88FF0A4CC8BF0A42CFCE98EF0A42CFCD0
:1008D7008AF0EDA42CFCEA8EF0A4CDA8F08BF0A44E
:1008E7002DCC3825F0FDE98FF0A42CCD35F0FCEBAD
:1008F7008EF0A4FEA9F0EB8FF0A4CFC5F02ECD3972
:0F090700FEE43CFCEAA42DCE35F0FDE43CFC22DE
:1009160075F008758200EF2FFFEE33FECD33CDCC98
:1009260033CCC58233C5829BED9AEC99E58298401B
:100936000CF582EE9BFEED9AFDEC99FC0FD5F0D6F8
:10094600E4CEFBE4CDFAE4CCF9A88222B800C1B922
:100956000059BA002DEC8BF084CFCECDFCE5F0CB60
:10096600F97818EF2FFFEE33FEED33FDEC33FCEB99
:1009760033FB10D703994004EB99FB0FD8E5E4F954
:10098600FA227818EF2FFFEE33FEED33FDEC33FC41
:10099600C933C910D7059BE99A4007EC9BFCE99A35
:1009A600F90FD8E0E4C9FAE4CCFB2275F010EF2F7A
:1009B600FFEE33FEED33FDCC33CCC833C810D7077A
:1009C6009BEC9AE899400AED9BFDEC9AFCE899F8B5
:0E09D6000FD5F0DAE4CDFBE4CCFAE4C8F92248
:100FAD00C2D5E830E70FB2D5E4C39BFBE49AFAE46F
:100FBD0099F9E498F8EC30E717B2D5120FE312095E
:100FCD0052E4C39BFBE49AFAE499F9E498F88003A0
:100FDD0012095230D50DE4C39FFFE49EFEE49DFD42
:040FED00E49CFC2262
:1009E400EB9FF5F0EA9E42F0E99D42F0EC6480C88A
:0609F40064809845F0222A
:1009FA00EB9FF5F0EA9E42F0E99D42F0E89C45F053
:010A0A0022C9
:0C0A0B00ECF0A3EDF0A3EEF0A3EFF0225E
:100A1700A8828583F0D083D082120A2E120A2E1262
:100A27000A2E120A2EE473E493A3C583C5F0C58387
:100A3700C8C582C8F0A3C583C5F0C583C8C582C829
:010A4700228C
:100A4800EC8EF0A4CCC5F0CCCDF8EFA4CEC5F02D3B
:100A5800FDE43CFCE8A42EC8C5F03DFDE43CFCEFF9
:0D0A6800A4FFE5F028FEE43DFDE43CFC2287
:00000001FF
