:03000000020AC928
:100AC90078FFE4F6D8FD9000007F007E03E4F0A3F0
:0A0AD900DFFCDEFA758120020B1E1F
:100D4D0044000C00000000410012004400000000AF
:070D5D00000042001000003D
:060BE20090001412090C42
:100BE80090001812091800000000900014E0FCA3FF
:100BF800E0FDA3E0FEA3E0FFA3E0F8A3E0F9A3E093
:100C0800FAA3E0FBC31208FB502200900018E0FC96
:100C1800A3E0FDA3E0FEA3E02401FFE43EFEE43DE3
:0C0C2800FDE43CFC90001812090C80BE9A
:010C3400229D
:100A2A00E4900013F0C2AF120C87120DA8120D9BAE
:100A3A007F07120D89120DB5120D6D120D27120CBA
:100A4A00C3D2AFE4900010F0A3F07B017A007904DE
:100A5A007D04120CF5E4900013F0900013E0FFC33C
:100A6A0094045025EF25E02404F582E43400F5834C
:100A7A00E0FEA3E0FF900011E02FF0900010E03EAE
:100A8A00F0900013E004F080D1900010E0FEA3E0A3
:100A9A007802CEC313CE13D8F9FF900010EEF0A35C
:100AAA00EFF0E4FCFD1200007F0D1200007F0A1235
:0F0ABA0000007FE87E037D007C00120BE2808449
:03000B000209499E
:10094900C0E0C0F0C083C082C0D075D000C000C074
:0D09590001C002C003C004C005C006C007F5
:1009660090001CE4F0A3F090001EF0A3F090100E8F
:10097600E0FDA3E0FCE58030E31990001CECF0A359
:10098600EDF090000012091800000000900012E43B
:10099600F08073AE04AF0590001EECF0A3EFF0906C
:1009A600001CE0FEA3E0FFC390001FE09F90001E26
:1009B600E09E90001CE0FEA3E0FF400D90001FE0CB
:1009C6009FFF90001EE09E8014C374FF9FFF74FF7C
:1009D6009EFE90001FE02FFF90001EE03EFEE4FC0E
:1009E600FD90000012090CE47B02FAF9F890000071
:1009F600E0FCA3E0FDA3E0FEA3E0FF12086990007F
:090A06000C12090CD2005399FBFB
:100A0F00D007D006D005D004D003D002D001D0003B
:0B0A1F00D0D0D082D083D0F0D0E032E5
:03006300020DBCCF
:010DBC003204
:03006B00020C354F
:100C3500C0E0C0F0C083C082C0D075D000C000C085
:100C450004C005C006C007900012E07020900000A7
:100C5500E0FCA3E0FDA3E0FEA3E02400FFE43EFEEC
:100C6500ED3401FDE43CFC90000012090CD007D0E6
:100C750006D005D004D000D0D0D082D083D0F0D01B
:020C8500E0325B
:03007300020DBDBE
:010DBD003203
:0D0D9B0043D140E4F59275930E43AB012265
:100D8900439280EF540FFFE59254F04FF59243924E
:020D99004022F6
:070DB50075AC0C43A80222FB
:100D6D0043D90175CB3075CA2075CF4E75CE1F7521
:0C0D7D00CD9C75CC3F43AA0143CB8022E3
:100D270043D9029010097410F09010087460F09085
:100D3700100B749CF090100A743FF043AA029010B5
:060D470009E04480F022E7
:100CC30043D9049010117430F09010107460F090B8
:100CD3001015744EF0901014741FF0901013749C40
:100CE300F0901012743FF043AA04901011E0448076
:020CF300F022ED
:0C0DA800AFC8EF54C74428F5C8E4F58A32
:010DB400221C
:100C870043D101E4F5B5F5B475B3AA75B22AF5B148
:100C9700F58075B71875B61043D102F5BDF5BC756B
:100CA700BBAA75BAAAF5B9F588F5BFF5BE43D10455
:0C0CB700F5C5F5C475C2AAF590F5C6227B
:080D64004100230041002400BE
:100CF500900023EDF0900020EBF0A3EAF0A3E9F0DB
:100D0500E4900024F043AB01E59354307003439223
:100D150040900023E0FFE4C39F40F653937F53AB1D
:020D2500FE22AC
:03009300020B63FA
:100B6300C0E0C0F0C083C082C0D075D000C000C058
:100B730001C002C003C004C005C006C007AF94EFA4
:100B8300FD7C00AF95EFFEE42DFFEC3EFE900020D0
:100B9300E0FBA3E0FAA3E0F9900024E0FD04F07584
:100BA300F002EDA4F58285F083EE8FF01208009039
:100BB3000023E014F0E59354307006E060034392A1
:100BC3004053937FD007D006D005D004D003D00282
:0F0BD300D001D000D0D0D082D083D0F0D0E0328B
:100AE300020A2AE493A3F8E493A34003F68001F2F5
:100AF30008DFF48029E493A3F85407240CC8C33314
:100B0300C4540F4420C8834004F456800146F6DFE2
:100B1300E4800B0102040810204080900D4DE47E18
:100B2300019360BCA3FF543F30E509541FFEE493D7
:100B3300A360010ECF54C025E060A840B8E493A39E
:100B4300FAE493A3F8E493A3C8C582C8CAC583CAC9
:100B5300F0A3C8C582C8CAC583CADFE9DEE780BE81
:010D6C000086
:10080000F8BB0111E58229F582E5833AF583E8F02A
:10081000E5F0A3F0225009E92582C8F608A6F022E7
:0D082000BBFE09E92582C8F2E5F008F222CE
:10082D0075F008758200EF2FFFEE33FECD33CDCC82
:10083D0033CCC58233C5829BED9AEC99E582984005
:10084D000CF582EE9BFEED9AFDEC99FC0FD5F0D6E2
:10085D00E4CEFBE4CDFAE4CCF9A88222B800C1B90C
:10086D000059BA002DEC8BF084CFCECDFCE5F0CB4A
:10087D00F97818EF2FFFEE33FEED33FDEC33FCEB83
:10088D0033FB10D703994004EB99FB0FD8E5E4F93E
:10089D00FA227818EF2FFFEE33FEED33FDEC33FC2B
:1008AD00C933C910D7059BE99A4007EC9BFCE99A1F
:1008BD00F90FD8E0E4C9FAE4CCFB2275F010EF2F64
:1008CD00FFEE33FEED33FDCC33CCC833C810D70764
:1008DD009BEC9AE899400AED9BFDEC9AFCE899F89F
:0E08ED000FD5F0DAE4CDFBE4CCFAE4C8F92232
:1008FB00EB9FF5F0EA9E42F0E99D42F0E89C45F053
:01090B0022C9
:0C090C00ECF0A3EDF0A3EEF0A3EFF0225E
:10091800A8828583F0D083D08212092F12092F1262
:10092800092F12092FE473E493A3C583C5F0C58387
:10093800C8C582C8F0A3C583C5F0C583C8C582C829
:01094800228C
:00000001FF
